{
  "contractName": "DietManager",
  "abi": [
    {
      "constant": true,
      "inputs": [
        {
          "name": "",
          "type": "uint256"
        },
        {
          "name": "",
          "type": "uint256"
        }
      ],
      "name": "offers",
      "outputs": [
        {
          "name": "buyer",
          "type": "address"
        },
        {
          "name": "status",
          "type": "uint8"
        }
      ],
      "payable": false,
      "stateMutability": "view",
      "type": "function"
    },
    {
      "constant": true,
      "inputs": [
        {
          "name": "",
          "type": "uint256"
        }
      ],
      "name": "listings",
      "outputs": [
        {
          "name": "seller",
          "type": "address"
        }
      ],
      "payable": false,
      "stateMutability": "view",
      "type": "function"
    },
    {
      "anonymous": false,
      "inputs": [
        {
          "indexed": true,
          "name": "party",
          "type": "address"
        },
        {
          "indexed": false,
          "name": "ipfsHash",
          "type": "string"
        }
      ],
      "name": "DietData",
      "type": "event"
    },
    {
      "anonymous": false,
      "inputs": [
        {
          "indexed": true,
          "name": "party",
          "type": "address"
        },
        {
          "indexed": true,
          "name": "listingID",
          "type": "uint256"
        },
        {
          "indexed": false,
          "name": "ipfsHash",
          "type": "string"
        }
      ],
      "name": "ListingCreated",
      "type": "event"
    },
    {
      "anonymous": false,
      "inputs": [
        {
          "indexed": true,
          "name": "party",
          "type": "address"
        },
        {
          "indexed": true,
          "name": "listingID",
          "type": "uint256"
        },
        {
          "indexed": false,
          "name": "ipfsHash",
          "type": "string"
        }
      ],
      "name": "ListingUpdated",
      "type": "event"
    },
    {
      "anonymous": false,
      "inputs": [
        {
          "indexed": true,
          "name": "party",
          "type": "address"
        },
        {
          "indexed": true,
          "name": "listingID",
          "type": "uint256"
        },
        {
          "indexed": false,
          "name": "ipfsHash",
          "type": "string"
        }
      ],
      "name": "ListingData",
      "type": "event"
    },
    {
      "anonymous": false,
      "inputs": [
        {
          "indexed": true,
          "name": "party",
          "type": "address"
        },
        {
          "indexed": true,
          "name": "listingID",
          "type": "uint256"
        },
        {
          "indexed": true,
          "name": "offerID",
          "type": "uint256"
        },
        {
          "indexed": false,
          "name": "ipfsHash",
          "type": "string"
        }
      ],
      "name": "OfferCreated",
      "type": "event"
    },
    {
      "anonymous": false,
      "inputs": [
        {
          "indexed": true,
          "name": "party",
          "type": "address"
        },
        {
          "indexed": true,
          "name": "listingID",
          "type": "uint256"
        },
        {
          "indexed": true,
          "name": "offerID",
          "type": "uint256"
        },
        {
          "indexed": false,
          "name": "ipfsHash",
          "type": "string"
        }
      ],
      "name": "OfferAccepted",
      "type": "event"
    },
    {
      "anonymous": false,
      "inputs": [
        {
          "indexed": true,
          "name": "party",
          "type": "address"
        },
        {
          "indexed": true,
          "name": "listingID",
          "type": "uint256"
        },
        {
          "indexed": true,
          "name": "offerID",
          "type": "uint256"
        },
        {
          "indexed": false,
          "name": "ipfsHash",
          "type": "string"
        }
      ],
      "name": "OfferFinalized",
      "type": "event"
    },
    {
      "anonymous": false,
      "inputs": [
        {
          "indexed": true,
          "name": "party",
          "type": "address"
        },
        {
          "indexed": true,
          "name": "listingID",
          "type": "uint256"
        },
        {
          "indexed": true,
          "name": "offerID",
          "type": "uint256"
        },
        {
          "indexed": false,
          "name": "ipfsHash",
          "type": "string"
        }
      ],
      "name": "OfferData",
      "type": "event"
    },
    {
      "constant": true,
      "inputs": [
        {
          "name": "listingID",
          "type": "uint256"
        }
      ],
      "name": "totalOffers",
      "outputs": [
        {
          "name": "",
          "type": "uint256"
        }
      ],
      "payable": false,
      "stateMutability": "view",
      "type": "function"
    },
    {
      "constant": false,
      "inputs": [],
      "name": "totalListings",
      "outputs": [
        {
          "name": "",
          "type": "uint256"
        }
      ],
      "payable": false,
      "stateMutability": "nonpayable",
      "type": "function"
    },
    {
      "constant": false,
      "inputs": [
        {
          "name": "_ipfsHash",
          "type": "string"
        }
      ],
      "name": "createListing",
      "outputs": [],
      "payable": false,
      "stateMutability": "nonpayable",
      "type": "function"
    },
    {
      "constant": false,
      "inputs": [
        {
          "name": "listingID",
          "type": "uint256"
        },
        {
          "name": "_ipfsHash",
          "type": "string"
        }
      ],
      "name": "makeOffer",
      "outputs": [],
      "payable": true,
      "stateMutability": "payable",
      "type": "function"
    },
    {
      "constant": false,
      "inputs": [
        {
          "name": "listingID",
          "type": "uint256"
        },
        {
          "name": "offerID",
          "type": "uint256"
        },
        {
          "name": "_ipfsHash",
          "type": "string"
        }
      ],
      "name": "finalize",
      "outputs": [],
      "payable": true,
      "stateMutability": "payable",
      "type": "function"
    },
    {
      "constant": false,
      "inputs": [
        {
          "name": "ipfsHash",
          "type": "string"
        }
      ],
      "name": "addData1",
      "outputs": [],
      "payable": false,
      "stateMutability": "nonpayable",
      "type": "function"
    },
    {
      "constant": false,
      "inputs": [
        {
          "name": "listingID",
          "type": "uint256"
        },
        {
          "name": "offerID",
          "type": "uint256"
        },
        {
          "name": "ipfsHash",
          "type": "string"
        }
      ],
      "name": "addData2",
      "outputs": [],
      "payable": false,
      "stateMutability": "nonpayable",
      "type": "function"
    },
    {
      "constant": false,
      "inputs": [
        {
          "name": "listingID",
          "type": "uint256"
        },
        {
          "name": "offerID",
          "type": "uint256"
        },
        {
          "name": "ipfsHash",
          "type": "string"
        }
      ],
      "name": "addData3",
      "outputs": [],
      "payable": false,
      "stateMutability": "nonpayable",
      "type": "function"
    }
  ],
  "bytecode": "0x608060405234801561001057600080fd5b50610dc8806100206000396000f3006080604052600436106100a4576000357c0100000000000000000000000000000000000000000000000000000000900463ffffffff16806303f9be14146100a957806338e666391461010f5780634d03a9a51461018c57806361245a38146102105780636c3304171461027957806391f1f310146102e2578063a30be34814610323578063c78b616c146103a0578063d257c587146103cb578063de74e57b1461043b575b600080fd5b61010d60048036038101908080359060200190929190803590602001908201803590602001908080601f01602080910402602001604051908101604052809392919081815260200183838082843782019150505050505091929192905050506104a8565b005b34801561011b57600080fd5b5061018a6004803603810190808035906020019092919080359060200190929190803590602001908201803590602001908080601f016020809104026020016040519081016040528093929190818152602001838380828437820191505050505050919291929050505061064d565b005b34801561019857600080fd5b506101c16004803603810190808035906020019092919080359060200190929190505050610706565b604051808373ffffffffffffffffffffffffffffffffffffffff1673ffffffffffffffffffffffffffffffffffffffff1681526020018260ff1660ff1681526020019250505060405180910390f35b34801561021c57600080fd5b50610277600480360381019080803590602001908201803590602001908080601f016020809104026020016040519081016040528093929190818152602001838380828437820191505050505050919291929050505061076f565b005b34801561028557600080fd5b506102e0600480360381019080803590602001908201803590602001908080601f016020809104026020016040519081016040528093929190818152602001838380828437820191505050505050919291929050505061077c565b005b3480156102ee57600080fd5b5061030d60048036038101908080359060200190929190505050610832565b6040518082815260200191505060405180910390f35b34801561032f57600080fd5b5061039e6004803603810190808035906020019092919080359060200190929190803590602001908201803590602001908080601f0160208091040260200160405190810160405280939291908181526020018383808284378201915050505050509192919290505050610852565b005b3480156103ac57600080fd5b506103b561090c565b6040518082815260200191505060405180910390f35b6104396004803603810190808035906020019092919080359060200190929190803590602001908201803590602001908080601f0160208091040260200160405190810160405280939291908181526020018383808284378201915050505050509192919290505050610918565b005b34801561044757600080fd5b5061046660048036038101908080359060200190929190505050610bfa565b604051808273ffffffffffffffffffffffffffffffffffffffff1673ffffffffffffffffffffffffffffffffffffffff16815260200191505060405180910390f35b6001600083815260200190815260200160002060408051908101604052803373ffffffffffffffffffffffffffffffffffffffff168152602001600160ff1681525090806001815401808255809150509060018203906000526020600020016000909192909190915060008201518160000160006101000a81548173ffffffffffffffffffffffffffffffffffffffff021916908373ffffffffffffffffffffffffffffffffffffffff16021790555060208201518160000160146101000a81548160ff021916908360ff16021790555050505060018060008481526020019081526020016000208054905003823373ffffffffffffffffffffffffffffffffffffffff167f2fc8a4841c74ffc5f6fe319ba5f65f7a20acfb7306eb21d0351e8f65fc450941846040518080602001828103825283818151815260200191508051906020019080838360005b8381101561060f5780820151818401526020810190506105f4565b50505050905090810190601f16801561063c5780820380516001836020036101000a031916815260200191505b509250505060405180910390a45050565b823373ffffffffffffffffffffffffffffffffffffffff167f34a3d028808d21f6aa396727aaf86c167d179d7c676e35940a8acab8f1e5dba2836040518080602001828103825283818151815260200191508051906020019080838360005b838110156106c75780820151818401526020810190506106ac565b50505050905090810190601f1680156106f45780820380516001836020036101000a031916815260200191505b509250505060405180910390a3505050565b60016020528160005260406000208181548110151561072157fe5b90600052602060002001600091509150508060000160009054906101000a900473ffffffffffffffffffffffffffffffffffffffff16908060000160149054906101000a900460ff16905082565b6107793382610c43565b50565b3373ffffffffffffffffffffffffffffffffffffffff167f74d49ea7cee4f53b69d088efd71dbf6322775f27d66351e1a0bb2550b2a0c50e826040518080602001828103825283818151815260200191508051906020019080838360005b838110156107f55780820151818401526020810190506107da565b50505050905090810190601f1680156108225780820380516001836020036101000a031916815260200191505b509250505060405180910390a250565b600060016000838152602001908152602001600020805490509050919050565b81833373ffffffffffffffffffffffffffffffffffffffff167f2cf43e6d783bd22aaf8b5a6d89d572eb233f6248d0deb05d6c90037a4dc87df9846040518080602001828103825283818151815260200191508051906020019080838360005b838110156108cd5780820151818401526020810190506108b2565b50505050905090810190601f1680156108fa5780820380516001836020036101000a031916815260200191505b509250505060405180910390a4505050565b60008080549050905090565b60008060008581548110151561092a57fe5b906000526020600020019150600160008681526020019081526020016000208481548110151561095657fe5b9060005260206000200190508060000160009054906101000a900473ffffffffffffffffffffffffffffffffffffffff1673ffffffffffffffffffffffffffffffffffffffff163373ffffffffffffffffffffffffffffffffffffffff16141515610a29576040517f08c379a00000000000000000000000000000000000000000000000000000000081526004018080602001828103825260178152602001807f4f6e6c792062757965722063616e2066696e616c697a6500000000000000000081525060200191505060405180910390fd5b60018160000160149054906101000a900460ff1660ff16141515610ab5576040517f08c379a00000000000000000000000000000000000000000000000000000000081526004018080602001828103825260118152602001807f73746174757320213d206372656174656400000000000000000000000000000081525060200191505060405180910390fd5b8160000160009054906101000a900473ffffffffffffffffffffffffffffffffffffffff1673ffffffffffffffffffffffffffffffffffffffff166108fc349081150290604051600060405180830381858888f19350505050158015610b1f573d6000803e3d6000fd5b5060028160000160146101000a81548160ff021916908360ff16021790555083853373ffffffffffffffffffffffffffffffffffffffff167ff001e03a699ecd00b2bf7bed35f385043b633d4806e769744f634499fdfb83b3866040518080602001828103825283818151815260200191508051906020019080838360005b83811015610bb9578082015181840152602081019050610b9e565b50505050905090810190601f168015610be65780820380516001836020036101000a031916815260200191505b509250505060405180910390a45050505050565b600081815481101515610c0957fe5b906000526020600020016000915090508060000160009054906101000a900473ffffffffffffffffffffffffffffffffffffffff16905081565b60006020604051908101604052808473ffffffffffffffffffffffffffffffffffffffff1681525090806001815401808255809150509060018203906000526020600020016000909192909190915060008201518160000160006101000a81548173ffffffffffffffffffffffffffffffffffffffff021916908373ffffffffffffffffffffffffffffffffffffffff1602179055505050506001600080549050038273ffffffffffffffffffffffffffffffffffffffff167fb03d561a02ab3773657d135d446f9b6fd8bacea6798eb5b0edba7a1cb2d224de836040518080602001828103825283818151815260200191508051906020019080838360005b83811015610d5e578082015181840152602081019050610d43565b50505050905090810190601f168015610d8b5780820380516001836020036101000a031916815260200191505b509250505060405180910390a350505600a165627a7a72305820ea052802d4e8bc10ef26338273bacd7807dd9ae3944ed1809cd59f606390a8a20029",
  "source": "pragma solidity ^0.4.24;\r\n\r\ncontract DietManager {\r\n    \r\n\r\n    event DietData(address indexed party, string ipfsHash); //party ---> msg.sender\r\n    event ListingCreated(address indexed party, uint indexed listingID, string ipfsHash);\r\n    event ListingUpdated(address indexed party, uint indexed listingID, string ipfsHash);\r\n    event ListingData(address indexed party, uint indexed listingID, string ipfsHash);    \r\n    event OfferCreated (address indexed party, uint indexed listingID, uint indexed offerID, string ipfsHash);\r\n    event OfferAccepted (address indexed party, uint indexed listingID, uint indexed offerID, string ipfsHash);\r\n    event OfferFinalized (address indexed party, uint indexed listingID, uint indexed offerID, string ipfsHash);\r\n    event OfferData(address indexed party,uint indexed listingID, uint indexed offerID, string ipfsHash);\r\n\r\n\r\n   // uint256 value = 1;\r\n    \r\n    struct Listing {\r\n        address seller;\r\n    }\r\n\r\n    struct Offer{\r\n        //uint value;\r\n        address buyer;\r\n        //uint finalizes; //Timestamp offer finalizes\r\n        uint8 status; // 0: Undefined, 1: Created, 2:Completed\r\n    }\r\n    \r\n    Listing[] public listings;\r\n    mapping(uint => Offer[]) public offers; //listingID => Offers\r\n    //Offer[] public offers;\r\n\r\n    \r\n    function totalOffers(uint listingID) public view returns (uint) {\r\n        return offers[listingID].length;\r\n    }\r\n\r\n    function totalListings() returns(uint) {\r\n        return listings.length;\r\n    }\r\n    \r\n    function createListing (string _ipfsHash) public {\r\n        _createListing(msg.sender, _ipfsHash);\r\n    }\r\n\r\n    function _createListing (address _seller, string _ipfsHash) internal {\r\n        listings.push(Listing({\r\n            seller : _seller\r\n            }));\r\n\r\n        emit ListingCreated(_seller, listings.length-1, _ipfsHash);\r\n    }\r\n    \r\n    /*function updateListing(\r\n        uint listingID,\r\n        string _ipfsHash) public {    \r\n        _updateListing(msg.sender, listingID, _ipfsHash);\r\n    }\r\n\r\n\r\n    function _updateListing(\r\n        address _seller,\r\n        uint listingID,\r\n        string _ipfsHash) private {\r\n        \r\n        Listing storage listing = listings[listingID];\r\n\r\n        require (listing.seller == _seller, \"Seller must call\");\r\n\r\n        emit ListingUpdated(listing.seller, listingID, _ipfsHash);             \r\n    }\r\n    \r\n    */\r\n    function makeOffer(\r\n        uint listingID,\r\n        string _ipfsHash  // IPFS hash containing offer data\r\n        //uint _finalizes,\r\n        /*uint _value*/) public payable {\r\n        \r\n        offers[listingID].push(Offer({\r\n            status: 1,\r\n            buyer: msg.sender\r\n          //  finalizes: _finalizes,\r\n            /*value: _value*/\r\n        }));\r\n        \r\n        emit OfferCreated(msg.sender, listingID, offers[listingID].length-1, _ipfsHash);        \r\n   \r\n    }\r\n    \r\n/*     function acceptOffer(uint listingID, uint offerID, string _ipfsHash) public {\r\n        Listing storage listing = listings[listingID];\r\n        Offer storage offer = offers[listingID][offerID];\r\n        require(msg.sender == listing.seller, \"Seller must accept\"); \r\n        // if(offer.finalizes <1000000000 ){\r\n        //     offer.finalizes= now+offer.finalizes;\r\n        // }\r\n        offer.status = 2;\r\n        \r\n        emit OfferAccepted(msg.sender, listingID, offerID, _ipfsHash);\r\n    } */\r\n    \r\n    function finalize(uint listingID, uint offerID, string _ipfsHash) public payable {\r\n        Listing storage listing = listings[listingID];\r\n        Offer storage offer = offers[listingID][offerID];\r\n        // if(now <= offer.finalizes){\r\n        //     require(msg.sender == offer.buyer,\"Only buyer can finalize\");\r\n        // }\r\n\r\n        require(msg.sender == offer.buyer, \"Only buyer can finalize\");\r\n        //offer.status = 2;\r\n        require(offer.status == 1, \"status != created\");\r\n        //paySeller\r\n        //offer.seller.transfer(offer.value);\r\n        listing.seller.transfer(msg.value);\r\n        offer.status = 2;\r\n        //listing.seller.transfer(value);\r\n        emit OfferFinalized(msg.sender, listingID, offerID, _ipfsHash);\r\n        //delete offers[listingID][offerID];\r\n    }\r\n    \r\n    function addData1(string ipfsHash) public {\r\n        emit DietData(msg.sender, ipfsHash);\r\n    }\r\n    \r\n    function addData2(uint listingID, uint offerID, string ipfsHash) public {\r\n        emit ListingData(msg.sender, listingID, ipfsHash);\r\n    }\r\n    \r\n    function addData3(uint listingID, uint offerID, string ipfsHash) public {\r\n        emit OfferData(msg.sender, listingID, offerID, ipfsHash);\r\n    }\r\n    \r\n}\r\n",
  "sourcePath": "/home/brian/Desktop/dapp/truffle/contracts/DietManager.sol",
  "compiler": {
    "name": "solc",
    "version": "0.4.24+commit.e67f0147.Emscripten.clang"
  },
  "schemaVersion": "2.0.1",
  "updatedAt": "2018-12-06T12:47:20.135Z"
}